{
  "contractName": "Escrow",
  "abi": [
    {
      "inputs": [
        {
          "internalType": "address",
          "name": "_buyer",
          "type": "address"
        },
        {
          "internalType": "address payable",
          "name": "_seller",
          "type": "address"
        },
        {
          "internalType": "uint256",
          "name": "_amount",
          "type": "uint256"
        }
      ],
      "stateMutability": "nonpayable",
      "type": "constructor"
    },
    {
      "inputs": [],
      "name": "amount",
      "outputs": [
        {
          "internalType": "uint256",
          "name": "",
          "type": "uint256"
        }
      ],
      "stateMutability": "view",
      "type": "function",
      "constant": true
    },
    {
      "inputs": [],
      "name": "arbiter",
      "outputs": [
        {
          "internalType": "address",
          "name": "",
          "type": "address"
        }
      ],
      "stateMutability": "view",
      "type": "function",
      "constant": true
    },
    {
      "inputs": [],
      "name": "buyer",
      "outputs": [
        {
          "internalType": "address",
          "name": "",
          "type": "address"
        }
      ],
      "stateMutability": "view",
      "type": "function",
      "constant": true
    },
    {
      "inputs": [],
      "name": "seller",
      "outputs": [
        {
          "internalType": "address payable",
          "name": "",
          "type": "address"
        }
      ],
      "stateMutability": "view",
      "type": "function",
      "constant": true
    },
    {
      "inputs": [],
      "name": "deposit",
      "outputs": [],
      "stateMutability": "payable",
      "type": "function",
      "payable": true
    },
    {
      "inputs": [],
      "name": "release",
      "outputs": [],
      "stateMutability": "nonpayable",
      "type": "function"
    },
    {
      "inputs": [],
      "name": "balanceOf",
      "outputs": [
        {
          "internalType": "uint256",
          "name": "",
          "type": "uint256"
        }
      ],
      "stateMutability": "view",
      "type": "function",
      "constant": true
    }
  ],
  "bytecode": "0x608060405234801561001057600080fd5b5060405161094a38038061094a833981810160405281019061003291906101da565b826000806101000a81548173ffffffffffffffffffffffffffffffffffffffff021916908373ffffffffffffffffffffffffffffffffffffffff16021790555081600160006101000a81548173ffffffffffffffffffffffffffffffffffffffff021916908373ffffffffffffffffffffffffffffffffffffffff16021790555033600260006101000a81548173ffffffffffffffffffffffffffffffffffffffff021916908373ffffffffffffffffffffffffffffffffffffffff1602179055508060038190555050505061022d565b600080fd5b600073ffffffffffffffffffffffffffffffffffffffff82169050919050565b600061013382610108565b9050919050565b61014381610128565b811461014e57600080fd5b50565b6000815190506101608161013a565b92915050565b600061017182610108565b9050919050565b61018181610166565b811461018c57600080fd5b50565b60008151905061019e81610178565b92915050565b6000819050919050565b6101b7816101a4565b81146101c257600080fd5b50565b6000815190506101d4816101ae565b92915050565b6000806000606084860312156101f3576101f2610103565b5b600061020186828701610151565b93505060206102128682870161018f565b9250506040610223868287016101c5565b9150509250925092565b61070e8061023c6000396000f3fe6080604052600436106100705760003560e01c806386d1a69f1161004e57806386d1a69f146100f6578063aa8c217c1461010d578063d0e30db014610138578063fe25e00a1461014257610070565b806308551a53146100755780637150d8ae146100a0578063722713f7146100cb575b600080fd5b34801561008157600080fd5b5061008a61016d565b6040516100979190610440565b60405180910390f35b3480156100ac57600080fd5b506100b5610193565b6040516100c2919061047c565b60405180910390f35b3480156100d757600080fd5b506100e06101b7565b6040516100ed91906104b0565b60405180910390f35b34801561010257600080fd5b5061010b6101bf565b005b34801561011957600080fd5b506101226102fe565b60405161012f91906104b0565b60405180910390f35b610140610304565b005b34801561014e57600080fd5b506101576103d9565b604051610164919061047c565b60405180910390f35b600160009054906101000a900473ffffffffffffffffffffffffffffffffffffffff1681565b60008054906101000a900473ffffffffffffffffffffffffffffffffffffffff1681565b600047905090565b6003544714610203576040517f08c379a00000000000000000000000000000000000000000000000000000000081526004016101fa9061054e565b60405180910390fd5b600260009054906101000a900473ffffffffffffffffffffffffffffffffffffffff1673ffffffffffffffffffffffffffffffffffffffff163373ffffffffffffffffffffffffffffffffffffffff1614610293576040517f08c379a000000000000000000000000000000000000000000000000000000000815260040161028a906105ba565b60405180910390fd5b600160009054906101000a900473ffffffffffffffffffffffffffffffffffffffff1673ffffffffffffffffffffffffffffffffffffffff166108fc479081150290604051600060405180830381858888f193505050501580156102fb573d6000803e3d6000fd5b50565b60035481565b60008054906101000a900473ffffffffffffffffffffffffffffffffffffffff1673ffffffffffffffffffffffffffffffffffffffff163373ffffffffffffffffffffffffffffffffffffffff1614610392576040517f08c379a000000000000000000000000000000000000000000000000000000000815260040161038990610626565b60405180910390fd5b6003544711156103d7576040517f08c379a00000000000000000000000000000000000000000000000000000000081526004016103ce906106b8565b60405180910390fd5b565b600260009054906101000a900473ffffffffffffffffffffffffffffffffffffffff1681565b600073ffffffffffffffffffffffffffffffffffffffff82169050919050565b600061042a826103ff565b9050919050565b61043a8161041f565b82525050565b60006020820190506104556000830184610431565b92915050565b6000610466826103ff565b9050919050565b6104768161045b565b82525050565b6000602082019050610491600083018461046d565b92915050565b6000819050919050565b6104aa81610497565b82525050565b60006020820190506104c560008301846104a1565b92915050565b600082825260208201905092915050565b7f63616e6e6f742072656c65617365206d6f6e6579206265666f7265207468652060008201527f66756c6c20616d6f756e74207761732073656e74000000000000000000000000602082015250565b60006105386034836104cb565b9150610543826104dc565b604082019050919050565b600060208201905081810360008301526105678161052b565b9050919050565b7f4f6e6c7920617262697465722063616e2072656c656173652066756e64730000600082015250565b60006105a4601e836104cb565b91506105af8261056e565b602082019050919050565b600060208201905081810360008301526105d381610597565b9050919050565b7f53656e646572206d757374206265207468652062757965720000000000000000600082015250565b60006106106018836104cb565b915061061b826105da565b602082019050919050565b6000602082019050818103600083015261063f81610603565b9050919050565b7f43616e742073656e64206d6f7265207468616e20657363726f7720616d6f756e60008201527f7400000000000000000000000000000000000000000000000000000000000000602082015250565b60006106a26021836104cb565b91506106ad82610646565b604082019050919050565b600060208201905081810360008301526106d181610695565b905091905056fea26469706673582212203f279da8cfa7036b83a33181b3592928b326166fbb6fb987350960033e3e6a1964736f6c634300080c0033",
  "immutableReferences": {},
  "source": "// SPDX-License-Identifier: MIT\r\n\r\n\r\npragma solidity 0.8.12;\r\n\r\ncontract Escrow {\r\n    address public buyer;\r\n    address payable public seller ;\r\n    address public arbiter;\r\n    uint public amount;\r\n\r\n    constructor (address _buyer, address payable _seller, uint _amount)  {\r\n        buyer = _buyer;\r\n        seller = _seller;\r\n        arbiter = msg.sender;\r\n        amount = _amount;\r\n    }\r\n    function deposit() public payable {\r\n        // The send has to be able to send money\r\n        require(msg.sender == buyer, \"Sender must be the buyer\");\r\n        require(address(this).balance <= amount, \"Cant send more than escrow amount\");\r\n    }\r\n    function release() public {\r\n        //  All funds need to be received before it can be released\r\n        require(address(this).balance == amount, \"cannot release money before the full amount was sent\");\r\n        require(msg.sender == arbiter, \"Only arbiter can release funds\");\r\n        seller.transfer(address(this).balance);\r\n    }\r\n    function balanceOf() public view returns(uint) {\r\n        return address(this).balance;\r\n    }\r\n}",
  "sourcePath": "B:\\Block Chain Development\\Advanced Blockchain Platforms\\Polkadot\\Escrow_dApp_Truffle_Polkadot\\contracts\\Escrow.sol",
  "compiler": {
    "name": "solc",
    "version": "0.8.12+commit.f00d7308.Emscripten.clang"
  },
  "schemaVersion": "3.4.6",
  "updatedAt": "2022-03-15T23:19:19.255Z",
  "networkType": "ethereum",
  "devdoc": {
    "kind": "dev",
    "methods": {},
    "version": 1
  },
  "userdoc": {
    "kind": "user",
    "methods": {},
    "version": 1
  }
}